{
  "_format": "hh-sol-artifact-1",
  "contractName": "StudyGuideNFT",
  "sourceName": "contracts/StudyGuideNFT.sol",
  "abi": [
    {
      "inputs": [],
      "stateMutability": "nonpayable",
      "type": "constructor"
    },
    {
      "inputs": [
        {
          "internalType": "address",
          "name": "sender",
          "type": "address"
        },
        {
          "internalType": "uint256",
          "name": "balance",
          "type": "uint256"
        },
        {
          "internalType": "uint256",
          "name": "needed",
          "type": "uint256"
        },
        {
          "internalType": "uint256",
          "name": "tokenId",
          "type": "uint256"
        }
      ],
      "name": "ERC1155InsufficientBalance",
      "type": "error"
    },
    {
      "inputs": [
        {
          "internalType": "address",
          "name": "approver",
          "type": "address"
        }
      ],
      "name": "ERC1155InvalidApprover",
      "type": "error"
    },
    {
      "inputs": [
        {
          "internalType": "uint256",
          "name": "idsLength",
          "type": "uint256"
        },
        {
          "internalType": "uint256",
          "name": "valuesLength",
          "type": "uint256"
        }
      ],
      "name": "ERC1155InvalidArrayLength",
      "type": "error"
    },
    {
      "inputs": [
        {
          "internalType": "address",
          "name": "operator",
          "type": "address"
        }
      ],
      "name": "ERC1155InvalidOperator",
      "type": "error"
    },
    {
      "inputs": [
        {
          "internalType": "address",
          "name": "receiver",
          "type": "address"
        }
      ],
      "name": "ERC1155InvalidReceiver",
      "type": "error"
    },
    {
      "inputs": [
        {
          "internalType": "address",
          "name": "sender",
          "type": "address"
        }
      ],
      "name": "ERC1155InvalidSender",
      "type": "error"
    },
    {
      "inputs": [
        {
          "internalType": "address",
          "name": "operator",
          "type": "address"
        },
        {
          "internalType": "address",
          "name": "owner",
          "type": "address"
        }
      ],
      "name": "ERC1155MissingApprovalForAll",
      "type": "error"
    },
    {
      "inputs": [],
      "name": "EnforcedPause",
      "type": "error"
    },
    {
      "inputs": [],
      "name": "ExpectedPause",
      "type": "error"
    },
    {
      "inputs": [
        {
          "internalType": "address",
          "name": "owner",
          "type": "address"
        }
      ],
      "name": "OwnableInvalidOwner",
      "type": "error"
    },
    {
      "inputs": [
        {
          "internalType": "address",
          "name": "account",
          "type": "address"
        }
      ],
      "name": "OwnableUnauthorizedAccount",
      "type": "error"
    },
    {
      "inputs": [],
      "name": "ReentrancyGuardReentrantCall",
      "type": "error"
    },
    {
      "anonymous": false,
      "inputs": [
        {
          "indexed": true,
          "internalType": "address",
          "name": "account",
          "type": "address"
        },
        {
          "indexed": true,
          "internalType": "address",
          "name": "operator",
          "type": "address"
        },
        {
          "indexed": false,
          "internalType": "bool",
          "name": "approved",
          "type": "bool"
        }
      ],
      "name": "ApprovalForAll",
      "type": "event"
    },
    {
      "anonymous": false,
      "inputs": [
        {
          "indexed": true,
          "internalType": "uint256",
          "name": "id",
          "type": "uint256"
        },
        {
          "indexed": true,
          "internalType": "address",
          "name": "owner",
          "type": "address"
        },
        {
          "indexed": false,
          "internalType": "uint256",
          "name": "amount",
          "type": "uint256"
        }
      ],
      "name": "GuideBurned",
      "type": "event"
    },
    {
      "anonymous": false,
      "inputs": [
        {
          "indexed": true,
          "internalType": "uint256",
          "name": "id",
          "type": "uint256"
        },
        {
          "indexed": true,
          "internalType": "address",
          "name": "creator",
          "type": "address"
        },
        {
          "indexed": false,
          "internalType": "string",
          "name": "title",
          "type": "string"
        },
        {
          "indexed": false,
          "internalType": "uint256",
          "name": "price",
          "type": "uint256"
        },
        {
          "indexed": false,
          "internalType": "uint256",
          "name": "totalSupply",
          "type": "uint256"
        }
      ],
      "name": "GuideCreated",
      "type": "event"
    },
    {
      "anonymous": false,
      "inputs": [
        {
          "indexed": true,
          "internalType": "uint256",
          "name": "id",
          "type": "uint256"
        },
        {
          "indexed": true,
          "internalType": "address",
          "name": "buyer",
          "type": "address"
        },
        {
          "indexed": false,
          "internalType": "uint256",
          "name": "amount",
          "type": "uint256"
        },
        {
          "indexed": false,
          "internalType": "uint256",
          "name": "price",
          "type": "uint256"
        }
      ],
      "name": "GuidePurchased",
      "type": "event"
    },
    {
      "anonymous": false,
      "inputs": [
        {
          "indexed": true,
          "internalType": "uint256",
          "name": "id",
          "type": "uint256"
        },
        {
          "indexed": false,
          "internalType": "uint256",
          "name": "newPrice",
          "type": "uint256"
        },
        {
          "indexed": false,
          "internalType": "bool",
          "name": "isAvailable",
          "type": "bool"
        }
      ],
      "name": "GuideUpdated",
      "type": "event"
    },
    {
      "anonymous": false,
      "inputs": [
        {
          "indexed": true,
          "internalType": "address",
          "name": "previousOwner",
          "type": "address"
        },
        {
          "indexed": true,
          "internalType": "address",
          "name": "newOwner",
          "type": "address"
        }
      ],
      "name": "OwnershipTransferred",
      "type": "event"
    },
    {
      "anonymous": false,
      "inputs": [
        {
          "indexed": false,
          "internalType": "address",
          "name": "account",
          "type": "address"
        }
      ],
      "name": "Paused",
      "type": "event"
    },
    {
      "anonymous": false,
      "inputs": [
        {
          "indexed": true,
          "internalType": "uint256",
          "name": "id",
          "type": "uint256"
        },
        {
          "indexed": true,
          "internalType": "address",
          "name": "creator",
          "type": "address"
        },
        {
          "indexed": false,
          "internalType": "uint256",
          "name": "amount",
          "type": "uint256"
        }
      ],
      "name": "RoyaltyPaid",
      "type": "event"
    },
    {
      "anonymous": false,
      "inputs": [
        {
          "indexed": true,
          "internalType": "address",
          "name": "operator",
          "type": "address"
        },
        {
          "indexed": true,
          "internalType": "address",
          "name": "from",
          "type": "address"
        },
        {
          "indexed": true,
          "internalType": "address",
          "name": "to",
          "type": "address"
        },
        {
          "indexed": false,
          "internalType": "uint256[]",
          "name": "ids",
          "type": "uint256[]"
        },
        {
          "indexed": false,
          "internalType": "uint256[]",
          "name": "values",
          "type": "uint256[]"
        }
      ],
      "name": "TransferBatch",
      "type": "event"
    },
    {
      "anonymous": false,
      "inputs": [
        {
          "indexed": true,
          "internalType": "address",
          "name": "operator",
          "type": "address"
        },
        {
          "indexed": true,
          "internalType": "address",
          "name": "from",
          "type": "address"
        },
        {
          "indexed": true,
          "internalType": "address",
          "name": "to",
          "type": "address"
        },
        {
          "indexed": false,
          "internalType": "uint256",
          "name": "id",
          "type": "uint256"
        },
        {
          "indexed": false,
          "internalType": "uint256",
          "name": "value",
          "type": "uint256"
        }
      ],
      "name": "TransferSingle",
      "type": "event"
    },
    {
      "anonymous": false,
      "inputs": [
        {
          "indexed": false,
          "internalType": "string",
          "name": "value",
          "type": "string"
        },
        {
          "indexed": true,
          "internalType": "uint256",
          "name": "id",
          "type": "uint256"
        }
      ],
      "name": "URI",
      "type": "event"
    },
    {
      "anonymous": false,
      "inputs": [
        {
          "indexed": false,
          "internalType": "address",
          "name": "account",
          "type": "address"
        }
      ],
      "name": "Unpaused",
      "type": "event"
    },
    {
      "inputs": [],
      "name": "BASIS_POINTS",
      "outputs": [
        {
          "internalType": "uint256",
          "name": "",
          "type": "uint256"
        }
      ],
      "stateMutability": "view",
      "type": "function"
    },
    {
      "inputs": [],
      "name": "MAX_ROYALTY_PERCENTAGE",
      "outputs": [
        {
          "internalType": "uint256",
          "name": "",
          "type": "uint256"
        }
      ],
      "stateMutability": "view",
      "type": "function"
    },
    {
      "inputs": [
        {
          "internalType": "address",
          "name": "account",
          "type": "address"
        },
        {
          "internalType": "uint256",
          "name": "id",
          "type": "uint256"
        }
      ],
      "name": "balanceOf",
      "outputs": [
        {
          "internalType": "uint256",
          "name": "",
          "type": "uint256"
        }
      ],
      "stateMutability": "view",
      "type": "function"
    },
    {
      "inputs": [
        {
          "internalType": "address[]",
          "name": "accounts",
          "type": "address[]"
        },
        {
          "internalType": "uint256[]",
          "name": "ids",
          "type": "uint256[]"
        }
      ],
      "name": "balanceOfBatch",
      "outputs": [
        {
          "internalType": "uint256[]",
          "name": "",
          "type": "uint256[]"
        }
      ],
      "stateMutability": "view",
      "type": "function"
    },
    {
      "inputs": [
        {
          "internalType": "uint256",
          "name": "guideId",
          "type": "uint256"
        },
        {
          "internalType": "uint256",
          "name": "amount",
          "type": "uint256"
        }
      ],
      "name": "burn",
      "outputs": [],
      "stateMutability": "nonpayable",
      "type": "function"
    },
    {
      "inputs": [
        {
          "internalType": "string",
          "name": "title",
          "type": "string"
        },
        {
          "internalType": "string",
          "name": "author",
          "type": "string"
        },
        {
          "internalType": "string",
          "name": "description",
          "type": "string"
        },
        {
          "internalType": "string",
          "name": "subject",
          "type": "string"
        },
        {
          "internalType": "uint256",
          "name": "price",
          "type": "uint256"
        },
        {
          "internalType": "uint256",
          "name": "totalSupply",
          "type": "uint256"
        },
        {
          "internalType": "uint256",
          "name": "royaltyPercentage",
          "type": "uint256"
        },
        {
          "internalType": "string",
          "name": "uri_",
          "type": "string"
        }
      ],
      "name": "createGuide",
      "outputs": [
        {
          "internalType": "uint256",
          "name": "",
          "type": "uint256"
        }
      ],
      "stateMutability": "nonpayable",
      "type": "function"
    },
    {
      "inputs": [],
      "name": "emergencyWithdraw",
      "outputs": [],
      "stateMutability": "nonpayable",
      "type": "function"
    },
    {
      "inputs": [
        {
          "internalType": "address",
          "name": "creator",
          "type": "address"
        }
      ],
      "name": "getCreatorGuides",
      "outputs": [
        {
          "internalType": "uint256[]",
          "name": "",
          "type": "uint256[]"
        }
      ],
      "stateMutability": "view",
      "type": "function"
    },
    {
      "inputs": [
        {
          "internalType": "uint256",
          "name": "guideId",
          "type": "uint256"
        }
      ],
      "name": "getGuideInfo",
      "outputs": [
        {
          "internalType": "string",
          "name": "title",
          "type": "string"
        },
        {
          "internalType": "string",
          "name": "author",
          "type": "string"
        },
        {
          "internalType": "string",
          "name": "description",
          "type": "string"
        },
        {
          "internalType": "string",
          "name": "subject",
          "type": "string"
        },
        {
          "internalType": "uint256",
          "name": "price",
          "type": "uint256"
        },
        {
          "internalType": "address",
          "name": "creator",
          "type": "address"
        },
        {
          "internalType": "bool",
          "name": "isAvailable",
          "type": "bool"
        },
        {
          "internalType": "uint256",
          "name": "totalSupply",
          "type": "uint256"
        },
        {
          "internalType": "uint256",
          "name": "minted",
          "type": "uint256"
        },
        {
          "internalType": "uint256",
          "name": "royaltyPercentage",
          "type": "uint256"
        }
      ],
      "stateMutability": "view",
      "type": "function"
    },
    {
      "inputs": [
        {
          "internalType": "uint256",
          "name": "guideId",
          "type": "uint256"
        }
      ],
      "name": "getGuideOwners",
      "outputs": [
        {
          "internalType": "address[]",
          "name": "",
          "type": "address[]"
        }
      ],
      "stateMutability": "view",
      "type": "function"
    },
    {
      "inputs": [],
      "name": "guideCounter",
      "outputs": [
        {
          "internalType": "uint256",
          "name": "",
          "type": "uint256"
        }
      ],
      "stateMutability": "view",
      "type": "function"
    },
    {
      "inputs": [
        {
          "internalType": "address",
          "name": "account",
          "type": "address"
        },
        {
          "internalType": "address",
          "name": "operator",
          "type": "address"
        }
      ],
      "name": "isApprovedForAll",
      "outputs": [
        {
          "internalType": "bool",
          "name": "",
          "type": "bool"
        }
      ],
      "stateMutability": "view",
      "type": "function"
    },
    {
      "inputs": [
        {
          "internalType": "uint256",
          "name": "guideId",
          "type": "uint256"
        }
      ],
      "name": "isGuideAvailable",
      "outputs": [
        {
          "internalType": "bool",
          "name": "",
          "type": "bool"
        }
      ],
      "stateMutability": "view",
      "type": "function"
    },
    {
      "inputs": [],
      "name": "owner",
      "outputs": [
        {
          "internalType": "address",
          "name": "",
          "type": "address"
        }
      ],
      "stateMutability": "view",
      "type": "function"
    },
    {
      "inputs": [],
      "name": "paused",
      "outputs": [
        {
          "internalType": "bool",
          "name": "",
          "type": "bool"
        }
      ],
      "stateMutability": "view",
      "type": "function"
    },
    {
      "inputs": [
        {
          "internalType": "uint256",
          "name": "guideId",
          "type": "uint256"
        }
      ],
      "name": "purchaseGuide",
      "outputs": [],
      "stateMutability": "payable",
      "type": "function"
    },
    {
      "inputs": [],
      "name": "renounceOwnership",
      "outputs": [],
      "stateMutability": "nonpayable",
      "type": "function"
    },
    {
      "inputs": [
        {
          "internalType": "address",
          "name": "from",
          "type": "address"
        },
        {
          "internalType": "address",
          "name": "to",
          "type": "address"
        },
        {
          "internalType": "uint256[]",
          "name": "ids",
          "type": "uint256[]"
        },
        {
          "internalType": "uint256[]",
          "name": "values",
          "type": "uint256[]"
        },
        {
          "internalType": "bytes",
          "name": "data",
          "type": "bytes"
        }
      ],
      "name": "safeBatchTransferFrom",
      "outputs": [],
      "stateMutability": "nonpayable",
      "type": "function"
    },
    {
      "inputs": [
        {
          "internalType": "address",
          "name": "from",
          "type": "address"
        },
        {
          "internalType": "address",
          "name": "to",
          "type": "address"
        },
        {
          "internalType": "uint256",
          "name": "id",
          "type": "uint256"
        },
        {
          "internalType": "uint256",
          "name": "value",
          "type": "uint256"
        },
        {
          "internalType": "bytes",
          "name": "data",
          "type": "bytes"
        }
      ],
      "name": "safeTransferFrom",
      "outputs": [],
      "stateMutability": "nonpayable",
      "type": "function"
    },
    {
      "inputs": [
        {
          "internalType": "address",
          "name": "operator",
          "type": "address"
        },
        {
          "internalType": "bool",
          "name": "approved",
          "type": "bool"
        }
      ],
      "name": "setApprovalForAll",
      "outputs": [],
      "stateMutability": "nonpayable",
      "type": "function"
    },
    {
      "inputs": [
        {
          "internalType": "bool",
          "name": "_paused",
          "type": "bool"
        }
      ],
      "name": "setPaused",
      "outputs": [],
      "stateMutability": "nonpayable",
      "type": "function"
    },
    {
      "inputs": [
        {
          "internalType": "uint256",
          "name": "",
          "type": "uint256"
        }
      ],
      "name": "studyGuides",
      "outputs": [
        {
          "internalType": "uint256",
          "name": "id",
          "type": "uint256"
        },
        {
          "internalType": "string",
          "name": "title",
          "type": "string"
        },
        {
          "internalType": "string",
          "name": "author",
          "type": "string"
        },
        {
          "internalType": "string",
          "name": "description",
          "type": "string"
        },
        {
          "internalType": "string",
          "name": "subject",
          "type": "string"
        },
        {
          "internalType": "uint256",
          "name": "price",
          "type": "uint256"
        },
        {
          "internalType": "address",
          "name": "creator",
          "type": "address"
        },
        {
          "internalType": "bool",
          "name": "isAvailable",
          "type": "bool"
        },
        {
          "internalType": "uint256",
          "name": "totalSupply",
          "type": "uint256"
        },
        {
          "internalType": "uint256",
          "name": "minted",
          "type": "uint256"
        },
        {
          "internalType": "uint256",
          "name": "royaltyPercentage",
          "type": "uint256"
        }
      ],
      "stateMutability": "view",
      "type": "function"
    },
    {
      "inputs": [
        {
          "internalType": "bytes4",
          "name": "interfaceId",
          "type": "bytes4"
        }
      ],
      "name": "supportsInterface",
      "outputs": [
        {
          "internalType": "bool",
          "name": "",
          "type": "bool"
        }
      ],
      "stateMutability": "view",
      "type": "function"
    },
    {
      "inputs": [
        {
          "internalType": "address",
          "name": "newOwner",
          "type": "address"
        }
      ],
      "name": "transferOwnership",
      "outputs": [],
      "stateMutability": "nonpayable",
      "type": "function"
    },
    {
      "inputs": [
        {
          "internalType": "uint256",
          "name": "guideId",
          "type": "uint256"
        },
        {
          "internalType": "uint256",
          "name": "newPrice",
          "type": "uint256"
        },
        {
          "internalType": "bool",
          "name": "isAvailable",
          "type": "bool"
        }
      ],
      "name": "updateGuide",
      "outputs": [],
      "stateMutability": "nonpayable",
      "type": "function"
    },
    {
      "inputs": [
        {
          "internalType": "uint256",
          "name": "guideId",
          "type": "uint256"
        },
        {
          "internalType": "string",
          "name": "newURI",
          "type": "string"
        }
      ],
      "name": "updateURI",
      "outputs": [],
      "stateMutability": "nonpayable",
      "type": "function"
    },
    {
      "inputs": [
        {
          "internalType": "uint256",
          "name": "guideId",
          "type": "uint256"
        }
      ],
      "name": "uri",
      "outputs": [
        {
          "internalType": "string",
          "name": "",
          "type": "string"
        }
      ],
      "stateMutability": "view",
      "type": "function"
    },
    {
      "inputs": [],
      "name": "withdraw",
      "outputs": [],
      "stateMutability": "nonpayable",
      "type": "function"
    },
    {
      "stateMutability": "payable",
      "type": "receive"
    }
  ],
  "bytecode": "0x60806040523480156200001157600080fd5b5033604051806020016040528060008152506200003481620000e560201b60201c565b50600073ffffffffffffffffffffffffffffffffffffffff168173ffffffffffffffffffffffffffffffffffffffff1603620000aa5760006040517f1e4fbdf7000000000000000000000000000000000000000000000000000000008152600401620000a1919062000205565b60405180910390fd5b620000bb81620000fa60201b60201c565b5060016004819055506000600560006101000a81548160ff02191690831515021790555062000583565b8060029081620000f691906200049c565b5050565b6000600360009054906101000a900473ffffffffffffffffffffffffffffffffffffffff16905081600360006101000a81548173ffffffffffffffffffffffffffffffffffffffff021916908373ffffffffffffffffffffffffffffffffffffffff1602179055508173ffffffffffffffffffffffffffffffffffffffff168173ffffffffffffffffffffffffffffffffffffffff167f8be0079c531659141344cd1fd0a4f28419497f9722a3daafe3b4186f6b6457e060405160405180910390a35050565b600073ffffffffffffffffffffffffffffffffffffffff82169050919050565b6000620001ed82620001c0565b9050919050565b620001ff81620001e0565b82525050565b60006020820190506200021c6000830184620001f4565b92915050565b600081519050919050565b7f4e487b7100000000000000000000000000000000000000000000000000000000600052604160045260246000fd5b7f4e487b7100000000000000000000000000000000000000000000000000000000600052602260045260246000fd5b60006002820490506001821680620002a457607f821691505b602082108103620002ba57620002b96200025c565b5b50919050565b60008190508160005260206000209050919050565b60006020601f8301049050919050565b600082821b905092915050565b600060088302620003247fffffffffffffffffffffffffffffffffffffffffffffffffffffffffffffffff82620002e5565b620003308683620002e5565b95508019841693508086168417925050509392505050565b6000819050919050565b6000819050919050565b60006200037d62000377620003718462000348565b62000352565b62000348565b9050919050565b6000819050919050565b62000399836200035c565b620003b1620003a88262000384565b848454620002f2565b825550505050565b600090565b620003c8620003b9565b620003d58184846200038e565b505050565b5b81811015620003fd57620003f1600082620003be565b600181019050620003db565b5050565b601f8211156200044c576200041681620002c0565b6200042184620002d5565b8101602085101562000431578190505b620004496200044085620002d5565b830182620003da565b50505b505050565b600082821c905092915050565b6000620004716000198460080262000451565b1980831691505092915050565b60006200048c83836200045e565b9150826002028217905092915050565b620004a78262000222565b67ffffffffffffffff811115620004c357620004c26200022d565b5b620004cf82546200028b565b620004dc82828562000401565b600060209050601f831160018114620005145760008415620004ff578287015190505b6200050b85826200047e565b8655506200057b565b601f1984166200052486620002c0565b60005b828110156200054e5784890151825560018201915060208501945060208101905062000527565b868310156200056e57848901516200056a601f8916826200045e565b8355505b6001600288020188555050505b505050505050565b6148f280620005936000396000f3fe6080604052600436106101ba5760003560e01c80635c975abb116100ec578063b12d6ffe1161008a578063e1f1c4a711610064578063e1f1c4a71461063e578063e985e9c514610669578063f242432a146106a6578063f2fde38b146106cf576101c1565b8063b12d6ffe146105b7578063b390c0ab146105fe578063db2e21bc14610627576101c1565b80638da5cb5b116100c65780638da5cb5b146104fb5780638f9de00b14610526578063a22cb46514610563578063a9225d1b1461058c576101c1565b80635c975abb1461048e578063715018a6146104b957806374f0eb26146104d0576101c1565b806331d41c69116101595780633ccfd60b116101335780633ccfd60b146103c05780634a838968146103d75780634e1273f4146104145780635234500d14610451576101c1565b806331d41c69146103525780633843d4aa1461037b578063386f5bd414610397576101c1565b806315c90b8d1161019557806315c90b8d1461027d57806316c38b3c146102c35780631b25479b146102ec5780632eb2c2d614610329576101c1565b8062fdd58e146101c657806301ffc9a7146102035780630e89341c14610240576101c1565b366101c157005b600080fd5b3480156101d257600080fd5b506101ed60048036038101906101e89190612f41565b6106f8565b6040516101fa9190612f90565b60405180910390f35b34801561020f57600080fd5b5061022a60048036038101906102259190613003565b610752565b604051610237919061304b565b60405180910390f35b34801561024c57600080fd5b5061026760048036038101906102629190613066565b610834565b6040516102749190613123565b60405180910390f35b34801561028957600080fd5b506102a4600480360381019061029f9190613066565b6108d9565b6040516102ba9a99989796959493929190613154565b60405180910390f35b3480156102cf57600080fd5b506102ea60048036038101906102e59190613238565b610bac565b005b3480156102f857600080fd5b50610313600480360381019061030e9190613066565b610bd3565b6040516103209190613323565b60405180910390f35b34801561033557600080fd5b50610350600480360381019061034b9190613542565b610c74565b005b34801561035e57600080fd5b50610379600480360381019061037491906136b2565b610d1c565b005b61039560048036038101906103909190613066565b610d9c565b005b3480156103a357600080fd5b506103be60048036038101906103b9919061370e565b61116f565b005b3480156103cc57600080fd5b506103d5611246565b005b3480156103e357600080fd5b506103fe60048036038101906103f99190613761565b6112e7565b60405161040b919061384c565b60405180910390f35b34801561042057600080fd5b5061043b60048036038101906104369190613931565b61137e565b604051610448919061384c565b60405180910390f35b34801561045d57600080fd5b5061047860048036038101906104739190613066565b61148d565b604051610485919061304b565b60405180910390f35b34801561049a57600080fd5b506104a36114f1565b6040516104b0919061304b565b60405180910390f35b3480156104c557600080fd5b506104ce611508565b005b3480156104dc57600080fd5b506104e561151c565b6040516104f29190612f90565b60405180910390f35b34801561050757600080fd5b50610510611522565b60405161051d91906139a9565b60405180910390f35b34801561053257600080fd5b5061054d600480360381019061054891906139c4565b61154c565b60405161055a9190612f90565b60405180910390f35b34801561056f57600080fd5b5061058a60048036038101906105859190613b06565b61189a565b005b34801561059857600080fd5b506105a16118b0565b6040516105ae9190612f90565b60405180910390f35b3480156105c357600080fd5b506105de60048036038101906105d99190613066565b6118b6565b6040516105f59b9a99989796959493929190613b46565b60405180910390f35b34801561060a57600080fd5b5061062560048036038101906106209190613c0d565b611b5d565b005b34801561063357600080fd5b5061063c611c07565b005b34801561064a57600080fd5b50610653611ca8565b6040516106609190612f90565b60405180910390f35b34801561067557600080fd5b50610690600480360381019061068b9190613c4d565b611cae565b60405161069d919061304b565b60405180910390f35b3480156106b257600080fd5b506106cd60048036038101906106c89190613c8d565b611d42565b005b3480156106db57600080fd5b506106f660048036038101906106f19190613761565b611dea565b005b600080600083815260200190815260200160002060008473ffffffffffffffffffffffffffffffffffffffff1673ffffffffffffffffffffffffffffffffffffffff16815260200190815260200160002054905092915050565b60007fd9b67a26000000000000000000000000000000000000000000000000000000007bffffffffffffffffffffffffffffffffffffffffffffffffffffffff1916827bffffffffffffffffffffffffffffffffffffffffffffffffffffffff1916148061081d57507f0e89341c000000000000000000000000000000000000000000000000000000007bffffffffffffffffffffffffffffffffffffffffffffffffffffffff1916827bffffffffffffffffffffffffffffffffffffffffffffffffffffffff1916145b8061082d575061082c82611e70565b5b9050919050565b606060076000838152602001908152602001600020805461085490613d53565b80601f016020809104026020016040519081016040528092919081815260200182805461088090613d53565b80156108cd5780601f106108a2576101008083540402835291602001916108cd565b820191906000526020600020905b8154815290600101906020018083116108b057829003601f168201915b50505050509050919050565b6060806060806000806000806000806000600660008d815260200190815260200160002090508060010181600201826003018360040184600501548560060160009054906101000a900473ffffffffffffffffffffffffffffffffffffffff168660060160149054906101000a900460ff1687600701548860080154896009015489805461096690613d53565b80601f016020809104026020016040519081016040528092919081815260200182805461099290613d53565b80156109df5780601f106109b4576101008083540402835291602001916109df565b820191906000526020600020905b8154815290600101906020018083116109c257829003601f168201915b505050505099508880546109f290613d53565b80601f0160208091040260200160405190810160405280929190818152602001828054610a1e90613d53565b8015610a6b5780601f10610a4057610100808354040283529160200191610a6b565b820191906000526020600020905b815481529060010190602001808311610a4e57829003601f168201915b50505050509850878054610a7e90613d53565b80601f0160208091040260200160405190810160405280929190818152602001828054610aaa90613d53565b8015610af75780601f10610acc57610100808354040283529160200191610af7565b820191906000526020600020905b815481529060010190602001808311610ada57829003601f168201915b50505050509750868054610b0a90613d53565b80601f0160208091040260200160405190810160405280929190818152602001828054610b3690613d53565b8015610b835780601f10610b5857610100808354040283529160200191610b83565b820191906000526020600020905b815481529060010190602001808311610b6657829003601f168201915b505050505096509a509a509a509a509a509a509a509a509a509a50509193959799509193959799565b610bb4611eda565b8015610bc757610bc2611f61565b610bd0565b610bcf611fc4565b5b50565b606060096000838152602001908152602001600020805480602002602001604051908101604052809291908181526020018280548015610c6857602002820191906000526020600020905b8160009054906101000a900473ffffffffffffffffffffffffffffffffffffffff1673ffffffffffffffffffffffffffffffffffffffff1681526020019060010190808311610c1e575b50505050509050919050565b6000610c7e612027565b90508073ffffffffffffffffffffffffffffffffffffffff168673ffffffffffffffffffffffffffffffffffffffff1614158015610cc35750610cc18682611cae565b155b15610d075780866040517fe237d922000000000000000000000000000000000000000000000000000000008152600401610cfe929190613d84565b60405180910390fd5b610d14868686868661202f565b505050505050565b610d24611eda565b81600a548111158015610d375750600081115b610d76576040517f08c379a0000000000000000000000000000000000000000000000000000000008152600401610d6d90613df9565b60405180910390fd5b81600760008581526020019081526020016000209081610d969190613fc5565b50505050565b610da4612127565b610dac612168565b80600a548111158015610dbf5750600081115b610dfe576040517f08c379a0000000000000000000000000000000000000000000000000000000008152600401610df590613df9565b60405180910390fd5b60006006600084815260200190815260200160002090508060060160149054906101000a900460ff16610e66576040517f08c379a0000000000000000000000000000000000000000000000000000000008152600401610e5d906140e3565b60405180910390fd5b8060050154341015610ead576040517f08c379a0000000000000000000000000000000000000000000000000000000008152600401610ea49061414f565b60405180910390fd5b8060070154816008015410610ef7576040517f08c379a0000000000000000000000000000000000000000000000000000000008152600401610eee906141bb565b60405180910390fd5b6000612710826009015434610f0c919061420a565b610f16919061427b565b9050600081905060008234610f2b91906142ac565b9050610f4933876001604051806020016040528060008152506121ae565b836008016000815480929190610f5e906142e0565b919050555060096000878152602001908152602001600020339080600181540180825580915050600190039060005260206000200160009091909190916101000a81548173ffffffffffffffffffffffffffffffffffffffff021916908373ffffffffffffffffffffffffffffffffffffffff16021790555060008311156110bf578360060160009054906101000a900473ffffffffffffffffffffffffffffffffffffffff1673ffffffffffffffffffffffffffffffffffffffff166108fc839081150290604051600060405180830381858888f1935050505015801561104a573d6000803e3d6000fd5b508360060160009054906101000a900473ffffffffffffffffffffffffffffffffffffffff1673ffffffffffffffffffffffffffffffffffffffff16867ff670029fc6f5302baba881b4ae845d1453acdf752b4c19ed81fe0fa6a686409b846040516110b69190612f90565b60405180910390a35b6110c7611522565b73ffffffffffffffffffffffffffffffffffffffff166108fc829081150290604051600060405180830381858888f1935050505015801561110c573d6000803e3d6000fd5b503373ffffffffffffffffffffffffffffffffffffffff16867fa9be8745b73effbf66c12aff11f0bc85e8f29a6b809c1421c9439b870ed3fbd4600134604051611157929190614363565b60405180910390a3505050505061116c612247565b50565b611177611eda565b82600a54811115801561118a5750600081115b6111c9576040517f08c379a00000000000000000000000000000000000000000000000000000000081526004016111c090613df9565b60405180910390fd5b6000600660008681526020019081526020016000209050838160050181905550828160060160146101000a81548160ff021916908315150217905550847fa1f5f13aed5321ebc514cc187514f7549cc92be9e89360e766774e6d399cc046858560405161123792919061438c565b60405180910390a25050505050565b61124e611eda565b600047905060008111611296576040517f08c379a000000000000000000000000000000000000000000000000000000000815260040161128d90614401565b60405180910390fd5b61129e611522565b73ffffffffffffffffffffffffffffffffffffffff166108fc829081150290604051600060405180830381858888f193505050501580156112e3573d6000803e3d6000fd5b5050565b6060600860008373ffffffffffffffffffffffffffffffffffffffff1673ffffffffffffffffffffffffffffffffffffffff16815260200190815260200160002080548060200260200160405190810160405280929190818152602001828054801561137257602002820191906000526020600020905b81548152602001906001019080831161135e575b50505050509050919050565b606081518351146113ca57815183516040517f5b0599910000000000000000000000000000000000000000000000000000000081526004016113c1929190614421565b60405180910390fd5b6000835167ffffffffffffffff8111156113e7576113e661334a565b5b6040519080825280602002602001820160405280156114155781602001602082028036833780820191505090505b50905060005b84518110156114825761145261143a828761225190919063ffffffff16565b61144d838761226590919063ffffffff16565b6106f8565b8282815181106114655761146461444a565b5b6020026020010181815250508061147b906142e0565b905061141b565b508091505092915050565b60006006600083815260200190815260200160002060060160149054906101000a900460ff1680156114ea575060066000838152602001908152602001600020600701546006600084815260200190815260200160002060080154105b9050919050565b6000600560009054906101000a900460ff16905090565b611510611eda565b61151a6000612279565b565b600a5481565b6000600360009054906101000a900473ffffffffffffffffffffffffffffffffffffffff16905090565b6000611556612127565b60008511611599576040517f08c379a0000000000000000000000000000000000000000000000000000000008152600401611590906144c5565b60405180910390fd5b600084116115dc576040517f08c379a00000000000000000000000000000000000000000000000000000000081526004016115d390614557565b60405180910390fd5b6103e8831115611621576040517f08c379a0000000000000000000000000000000000000000000000000000000008152600401611618906145e9565b60405180910390fd5b600a6000815480929190611634906142e0565b91905055506000600a5490506040518061016001604052808281526020018b81526020018a81526020018981526020018881526020018781526020013373ffffffffffffffffffffffffffffffffffffffff1681526020016001151581526020018681526020016000815260200185815250600660008381526020019081526020016000206000820151816000015560208201518160010190816116d89190613fc5565b5060408201518160020190816116ee9190613fc5565b5060608201518160030190816117049190613fc5565b50608082015181600401908161171a9190613fc5565b5060a0820151816005015560c08201518160060160006101000a81548173ffffffffffffffffffffffffffffffffffffffff021916908373ffffffffffffffffffffffffffffffffffffffff16021790555060e08201518160060160146101000a81548160ff021916908315150217905550610100820151816007015561012082015181600801556101408201518160090155905050826007600083815260200190815260200160002090816117d09190613fc5565b50600860003373ffffffffffffffffffffffffffffffffffffffff1673ffffffffffffffffffffffffffffffffffffffff1681526020019081526020016000208190806001815401808255809150506001900390600052602060002001600090919091909150553373ffffffffffffffffffffffffffffffffffffffff16817f6362c7d227a9cf2ae2694ba7a2c1b30b66078c5bdf91d889418a6faac52d28b08c898960405161188293929190614609565b60405180910390a38091505098975050505050505050565b6118ac6118a5612027565b838361233f565b5050565b6103e881565b60066020528060005260406000206000915090508060000154908060010180546118df90613d53565b80601f016020809104026020016040519081016040528092919081815260200182805461190b90613d53565b80156119585780601f1061192d57610100808354040283529160200191611958565b820191906000526020600020905b81548152906001019060200180831161193b57829003601f168201915b50505050509080600201805461196d90613d53565b80601f016020809104026020016040519081016040528092919081815260200182805461199990613d53565b80156119e65780601f106119bb576101008083540402835291602001916119e6565b820191906000526020600020905b8154815290600101906020018083116119c957829003601f168201915b5050505050908060030180546119fb90613d53565b80601f0160208091040260200160405190810160405280929190818152602001828054611a2790613d53565b8015611a745780601f10611a4957610100808354040283529160200191611a74565b820191906000526020600020905b815481529060010190602001808311611a5757829003601f168201915b505050505090806004018054611a8990613d53565b80601f0160208091040260200160405190810160405280929190818152602001828054611ab590613d53565b8015611b025780601f10611ad757610100808354040283529160200191611b02565b820191906000526020600020905b815481529060010190602001808311611ae557829003601f168201915b5050505050908060050154908060060160009054906101000a900473ffffffffffffffffffffffffffffffffffffffff16908060060160149054906101000a900460ff1690806007015490806008015490806009015490508b565b80611b6833846106f8565b1015611ba9576040517f08c379a0000000000000000000000000000000000000000000000000000000008152600401611ba090614693565b60405180910390fd5b611bb43383836124af565b3373ffffffffffffffffffffffffffffffffffffffff16827fb4ac6e7cde3dd90a68df967016014381b9399ca6fdb339768c8d8d14a0d028cf83604051611bfb9190612f90565b60405180910390a35050565b611c0f611eda565b600047905060008111611c57576040517f08c379a0000000000000000000000000000000000000000000000000000000008152600401611c4e90614401565b60405180910390fd5b611c5f611522565b73ffffffffffffffffffffffffffffffffffffffff166108fc829081150290604051600060405180830381858888f19350505050158015611ca4573d6000803e3d6000fd5b5050565b61271081565b6000600160008473ffffffffffffffffffffffffffffffffffffffff1673ffffffffffffffffffffffffffffffffffffffff16815260200190815260200160002060008373ffffffffffffffffffffffffffffffffffffffff1673ffffffffffffffffffffffffffffffffffffffff16815260200190815260200160002060009054906101000a900460ff16905092915050565b6000611d4c612027565b90508073ffffffffffffffffffffffffffffffffffffffff168673ffffffffffffffffffffffffffffffffffffffff1614158015611d915750611d8f8682611cae565b155b15611dd55780866040517fe237d922000000000000000000000000000000000000000000000000000000008152600401611dcc929190613d84565b60405180910390fd5b611de28686868686612556565b505050505050565b611df2611eda565b600073ffffffffffffffffffffffffffffffffffffffff168173ffffffffffffffffffffffffffffffffffffffff1603611e645760006040517f1e4fbdf7000000000000000000000000000000000000000000000000000000008152600401611e5b91906139a9565b60405180910390fd5b611e6d81612279565b50565b60007f01ffc9a7000000000000000000000000000000000000000000000000000000007bffffffffffffffffffffffffffffffffffffffffffffffffffffffff1916827bffffffffffffffffffffffffffffffffffffffffffffffffffffffff1916149050919050565b611ee2612027565b73ffffffffffffffffffffffffffffffffffffffff16611f00611522565b73ffffffffffffffffffffffffffffffffffffffff1614611f5f57611f23612027565b6040517f118cdaa7000000000000000000000000000000000000000000000000000000008152600401611f5691906139a9565b60405180910390fd5b565b611f69612127565b6001600560006101000a81548160ff0219169083151502179055507f62e78cea01bee320cd4e420270b5ea74000d11b0c9f74754ebdbfc544b05a258611fad612027565b604051611fba91906139a9565b60405180910390a1565b611fcc612661565b6000600560006101000a81548160ff0219169083151502179055507f5db9ee0a495bf2e6ff9c91a7834c1ba4fdd244a5e8aa4e537bd38aeae4b073aa612010612027565b60405161201d91906139a9565b60405180910390a1565b600033905090565b600073ffffffffffffffffffffffffffffffffffffffff168473ffffffffffffffffffffffffffffffffffffffff16036120a15760006040517f57f447ce00000000000000000000000000000000000000000000000000000000815260040161209891906139a9565b60405180910390fd5b600073ffffffffffffffffffffffffffffffffffffffff168573ffffffffffffffffffffffffffffffffffffffff16036121135760006040517f01a8351400000000000000000000000000000000000000000000000000000000815260040161210a91906139a9565b60405180910390fd5b61212085858585856126a1565b5050505050565b61212f6114f1565b15612166576040517fd93c066500000000000000000000000000000000000000000000000000000000815260040160405180910390fd5b565b6002600454036121a4576040517f3ee5aeb500000000000000000000000000000000000000000000000000000000815260040160405180910390fd5b6002600481905550565b600073ffffffffffffffffffffffffffffffffffffffff168473ffffffffffffffffffffffffffffffffffffffff16036122205760006040517f57f447ce00000000000000000000000000000000000000000000000000000000815260040161221791906139a9565b60405180910390fd5b60008061222d8585612753565b9150915061223f6000878484876126a1565b505050505050565b6001600481905550565b600060208202602084010151905092915050565b600060208202602084010151905092915050565b6000600360009054906101000a900473ffffffffffffffffffffffffffffffffffffffff16905081600360006101000a81548173ffffffffffffffffffffffffffffffffffffffff021916908373ffffffffffffffffffffffffffffffffffffffff1602179055508173ffffffffffffffffffffffffffffffffffffffff168173ffffffffffffffffffffffffffffffffffffffff167f8be0079c531659141344cd1fd0a4f28419497f9722a3daafe3b4186f6b6457e060405160405180910390a35050565b600073ffffffffffffffffffffffffffffffffffffffff168273ffffffffffffffffffffffffffffffffffffffff16036123b15760006040517fced3e1000000000000000000000000000000000000000000000000000000000081526004016123a891906139a9565b60405180910390fd5b80600160008573ffffffffffffffffffffffffffffffffffffffff1673ffffffffffffffffffffffffffffffffffffffff16815260200190815260200160002060008473ffffffffffffffffffffffffffffffffffffffff1673ffffffffffffffffffffffffffffffffffffffff16815260200190815260200160002060006101000a81548160ff0219169083151502179055508173ffffffffffffffffffffffffffffffffffffffff168373ffffffffffffffffffffffffffffffffffffffff167f17307eab39ab6107e8899845ad3d59bd9653f200f220920489ca2b5937696c31836040516124a2919061304b565b60405180910390a3505050565b600073ffffffffffffffffffffffffffffffffffffffff168373ffffffffffffffffffffffffffffffffffffffff16036125215760006040517f01a8351400000000000000000000000000000000000000000000000000000000815260040161251891906139a9565b60405180910390fd5b60008061252e8484612753565b9150915061254f8560008484604051806020016040528060008152506126a1565b5050505050565b600073ffffffffffffffffffffffffffffffffffffffff168473ffffffffffffffffffffffffffffffffffffffff16036125c85760006040517f57f447ce0000000000000000000000000000000000000000000000000000000081526004016125bf91906139a9565b60405180910390fd5b600073ffffffffffffffffffffffffffffffffffffffff168573ffffffffffffffffffffffffffffffffffffffff160361263a5760006040517f01a8351400000000000000000000000000000000000000000000000000000000815260040161263191906139a9565b60405180910390fd5b6000806126478585612753565b9150915061265887878484876126a1565b50505050505050565b6126696114f1565b61269f576040517f8dfc202b00000000000000000000000000000000000000000000000000000000815260040160405180910390fd5b565b6126ad85858585612783565b600073ffffffffffffffffffffffffffffffffffffffff168473ffffffffffffffffffffffffffffffffffffffff161461274c5760006126eb612027565b9050600184510361273b57600061270c60008661226590919063ffffffff16565b9050600061272460008661226590919063ffffffff16565b9050612734838989858589612b31565b505061274a565b612749818787878787612ce5565b5b505b5050505050565b60608060405191506001825283602083015260408201905060018152826020820152604081016040529250929050565b80518251146127cd57815181516040517f5b0599910000000000000000000000000000000000000000000000000000000081526004016127c4929190614421565b60405180910390fd5b60006127d7612027565b905060005b83518110156129ec5760006127fa828661226590919063ffffffff16565b90506000612811838661226590919063ffffffff16565b9050600073ffffffffffffffffffffffffffffffffffffffff168873ffffffffffffffffffffffffffffffffffffffff161461293e57600080600084815260200190815260200160002060008a73ffffffffffffffffffffffffffffffffffffffff1673ffffffffffffffffffffffffffffffffffffffff168152602001908152602001600020549050818110156128e657888183856040517f03dee4c50000000000000000000000000000000000000000000000000000000081526004016128dd94939291906146b3565b60405180910390fd5b81810360008085815260200190815260200160002060008b73ffffffffffffffffffffffffffffffffffffffff1673ffffffffffffffffffffffffffffffffffffffff16815260200190815260200160002081905550505b600073ffffffffffffffffffffffffffffffffffffffff168773ffffffffffffffffffffffffffffffffffffffff16146129d9578060008084815260200190815260200160002060008973ffffffffffffffffffffffffffffffffffffffff1673ffffffffffffffffffffffffffffffffffffffff16815260200190815260200160002060008282546129d191906146f8565b925050819055505b5050806129e5906142e0565b90506127dc565b506001835103612aab576000612a0c60008561226590919063ffffffff16565b90506000612a2460008561226590919063ffffffff16565b90508573ffffffffffffffffffffffffffffffffffffffff168773ffffffffffffffffffffffffffffffffffffffff168473ffffffffffffffffffffffffffffffffffffffff167fc3d58168c5ae7397731d063d5bbf3d657854427343f4c083240f7aacaa2d0f628585604051612a9c929190614421565b60405180910390a45050612b2a565b8373ffffffffffffffffffffffffffffffffffffffff168573ffffffffffffffffffffffffffffffffffffffff168273ffffffffffffffffffffffffffffffffffffffff167f4a39dc06d4c0dbc64b70af90fd698a233a518aa5d07e595d983b8c0526c8f7fb8686604051612b2192919061472c565b60405180910390a45b5050505050565b60008473ffffffffffffffffffffffffffffffffffffffff163b1115612cdd578373ffffffffffffffffffffffffffffffffffffffff1663f23a6e6187878686866040518663ffffffff1660e01b8152600401612b929594939291906147b8565b6020604051808303816000875af1925050508015612bce57506040513d601f19601f82011682018060405250810190612bcb9190614827565b60015b612c52573d8060008114612bfe576040519150601f19603f3d011682016040523d82523d6000602084013e612c03565b606091505b506000815103612c4a57846040517f57f447ce000000000000000000000000000000000000000000000000000000008152600401612c4191906139a9565b60405180910390fd5b805181602001fd5b63f23a6e6160e01b7bffffffffffffffffffffffffffffffffffffffffffffffffffffffff1916817bffffffffffffffffffffffffffffffffffffffffffffffffffffffff191614612cdb57846040517f57f447ce000000000000000000000000000000000000000000000000000000008152600401612cd291906139a9565b60405180910390fd5b505b505050505050565b60008473ffffffffffffffffffffffffffffffffffffffff163b1115612e91578373ffffffffffffffffffffffffffffffffffffffff1663bc197c8187878686866040518663ffffffff1660e01b8152600401612d46959493929190614854565b6020604051808303816000875af1925050508015612d8257506040513d601f19601f82011682018060405250810190612d7f9190614827565b60015b612e06573d8060008114612db2576040519150601f19603f3d011682016040523d82523d6000602084013e612db7565b606091505b506000815103612dfe57846040517f57f447ce000000000000000000000000000000000000000000000000000000008152600401612df591906139a9565b60405180910390fd5b805181602001fd5b63bc197c8160e01b7bffffffffffffffffffffffffffffffffffffffffffffffffffffffff1916817bffffffffffffffffffffffffffffffffffffffffffffffffffffffff191614612e8f57846040517f57f447ce000000000000000000000000000000000000000000000000000000008152600401612e8691906139a9565b60405180910390fd5b505b505050505050565b6000604051905090565b600080fd5b600080fd5b600073ffffffffffffffffffffffffffffffffffffffff82169050919050565b6000612ed882612ead565b9050919050565b612ee881612ecd565b8114612ef357600080fd5b50565b600081359050612f0581612edf565b92915050565b6000819050919050565b612f1e81612f0b565b8114612f2957600080fd5b50565b600081359050612f3b81612f15565b92915050565b60008060408385031215612f5857612f57612ea3565b5b6000612f6685828601612ef6565b9250506020612f7785828601612f2c565b9150509250929050565b612f8a81612f0b565b82525050565b6000602082019050612fa56000830184612f81565b92915050565b60007fffffffff0000000000000000000000000000000000000000000000000000000082169050919050565b612fe081612fab565b8114612feb57600080fd5b50565b600081359050612ffd81612fd7565b92915050565b60006020828403121561301957613018612ea3565b5b600061302784828501612fee565b91505092915050565b60008115159050919050565b61304581613030565b82525050565b6000602082019050613060600083018461303c565b92915050565b60006020828403121561307c5761307b612ea3565b5b600061308a84828501612f2c565b91505092915050565b600081519050919050565b600082825260208201905092915050565b60005b838110156130cd5780820151818401526020810190506130b2565b60008484015250505050565b6000601f19601f8301169050919050565b60006130f582613093565b6130ff818561309e565b935061310f8185602086016130af565b613118816130d9565b840191505092915050565b6000602082019050818103600083015261313d81846130ea565b905092915050565b61314e81612ecd565b82525050565b600061014082019050818103600083015261316f818d6130ea565b90508181036020830152613183818c6130ea565b90508181036040830152613197818b6130ea565b905081810360608301526131ab818a6130ea565b90506131ba6080830189612f81565b6131c760a0830188613145565b6131d460c083018761303c565b6131e160e0830186612f81565b6131ef610100830185612f81565b6131fd610120830184612f81565b9b9a5050505050505050505050565b61321581613030565b811461322057600080fd5b50565b6000813590506132328161320c565b92915050565b60006020828403121561324e5761324d612ea3565b5b600061325c84828501613223565b91505092915050565b600081519050919050565b600082825260208201905092915050565b6000819050602082019050919050565b61329a81612ecd565b82525050565b60006132ac8383613291565b60208301905092915050565b6000602082019050919050565b60006132d082613265565b6132da8185613270565b93506132e583613281565b8060005b838110156133165781516132fd88826132a0565b9750613308836132b8565b9250506001810190506132e9565b5085935050505092915050565b6000602082019050818103600083015261333d81846132c5565b905092915050565b600080fd5b7f4e487b7100000000000000000000000000000000000000000000000000000000600052604160045260246000fd5b613382826130d9565b810181811067ffffffffffffffff821117156133a1576133a061334a565b5b80604052505050565b60006133b4612e99565b90506133c08282613379565b919050565b600067ffffffffffffffff8211156133e0576133df61334a565b5b602082029050602081019050919050565b600080fd5b6000613409613404846133c5565b6133aa565b9050808382526020820190506020840283018581111561342c5761342b6133f1565b5b835b8181101561345557806134418882612f2c565b84526020840193505060208101905061342e565b5050509392505050565b600082601f83011261347457613473613345565b5b81356134848482602086016133f6565b91505092915050565b600080fd5b600067ffffffffffffffff8211156134ad576134ac61334a565b5b6134b6826130d9565b9050602081019050919050565b82818337600083830152505050565b60006134e56134e084613492565b6133aa565b9050828152602081018484840111156135015761350061348d565b5b61350c8482856134c3565b509392505050565b600082601f83011261352957613528613345565b5b81356135398482602086016134d2565b91505092915050565b600080600080600060a0868803121561355e5761355d612ea3565b5b600061356c88828901612ef6565b955050602061357d88828901612ef6565b945050604086013567ffffffffffffffff81111561359e5761359d612ea8565b5b6135aa8882890161345f565b935050606086013567ffffffffffffffff8111156135cb576135ca612ea8565b5b6135d78882890161345f565b925050608086013567ffffffffffffffff8111156135f8576135f7612ea8565b5b61360488828901613514565b9150509295509295909350565b600067ffffffffffffffff82111561362c5761362b61334a565b5b613635826130d9565b9050602081019050919050565b600061365561365084613611565b6133aa565b9050828152602081018484840111156136715761367061348d565b5b61367c8482856134c3565b509392505050565b600082601f83011261369957613698613345565b5b81356136a9848260208601613642565b91505092915050565b600080604083850312156136c9576136c8612ea3565b5b60006136d785828601612f2c565b925050602083013567ffffffffffffffff8111156136f8576136f7612ea8565b5b61370485828601613684565b9150509250929050565b60008060006060848603121561372757613726612ea3565b5b600061373586828701612f2c565b935050602061374686828701612f2c565b925050604061375786828701613223565b9150509250925092565b60006020828403121561377757613776612ea3565b5b600061378584828501612ef6565b91505092915050565b600081519050919050565b600082825260208201905092915050565b6000819050602082019050919050565b6137c381612f0b565b82525050565b60006137d583836137ba565b60208301905092915050565b6000602082019050919050565b60006137f98261378e565b6138038185613799565b935061380e836137aa565b8060005b8381101561383f57815161382688826137c9565b9750613831836137e1565b925050600181019050613812565b5085935050505092915050565b6000602082019050818103600083015261386681846137ee565b905092915050565b600067ffffffffffffffff8211156138895761388861334a565b5b602082029050602081019050919050565b60006138ad6138a88461386e565b6133aa565b905080838252602082019050602084028301858111156138d0576138cf6133f1565b5b835b818110156138f957806138e58882612ef6565b8452602084019350506020810190506138d2565b5050509392505050565b600082601f83011261391857613917613345565b5b813561392884826020860161389a565b91505092915050565b6000806040838503121561394857613947612ea3565b5b600083013567ffffffffffffffff81111561396657613965612ea8565b5b61397285828601613903565b925050602083013567ffffffffffffffff81111561399357613992612ea8565b5b61399f8582860161345f565b9150509250929050565b60006020820190506139be6000830184613145565b92915050565b600080600080600080600080610100898b0312156139e5576139e4612ea3565b5b600089013567ffffffffffffffff811115613a0357613a02612ea8565b5b613a0f8b828c01613684565b985050602089013567ffffffffffffffff811115613a3057613a2f612ea8565b5b613a3c8b828c01613684565b975050604089013567ffffffffffffffff811115613a5d57613a5c612ea8565b5b613a698b828c01613684565b965050606089013567ffffffffffffffff811115613a8a57613a89612ea8565b5b613a968b828c01613684565b9550506080613aa78b828c01612f2c565b94505060a0613ab88b828c01612f2c565b93505060c0613ac98b828c01612f2c565b92505060e089013567ffffffffffffffff811115613aea57613ae9612ea8565b5b613af68b828c01613684565b9150509295985092959890939650565b60008060408385031215613b1d57613b1c612ea3565b5b6000613b2b85828601612ef6565b9250506020613b3c85828601613223565b9150509250929050565b600061016082019050613b5c600083018e612f81565b8181036020830152613b6e818d6130ea565b90508181036040830152613b82818c6130ea565b90508181036060830152613b96818b6130ea565b90508181036080830152613baa818a6130ea565b9050613bb960a0830189612f81565b613bc660c0830188613145565b613bd360e083018761303c565b613be1610100830186612f81565b613bef610120830185612f81565b613bfd610140830184612f81565b9c9b505050505050505050505050565b60008060408385031215613c2457613c23612ea3565b5b6000613c3285828601612f2c565b9250506020613c4385828601612f2c565b9150509250929050565b60008060408385031215613c6457613c63612ea3565b5b6000613c7285828601612ef6565b9250506020613c8385828601612ef6565b9150509250929050565b600080600080600060a08688031215613ca957613ca8612ea3565b5b6000613cb788828901612ef6565b9550506020613cc888828901612ef6565b9450506040613cd988828901612f2c565b9350506060613cea88828901612f2c565b925050608086013567ffffffffffffffff811115613d0b57613d0a612ea8565b5b613d1788828901613514565b9150509295509295909350565b7f4e487b7100000000000000000000000000000000000000000000000000000000600052602260045260246000fd5b60006002820490506001821680613d6b57607f821691505b602082108103613d7e57613d7d613d24565b5b50919050565b6000604082019050613d996000830185613145565b613da66020830184613145565b9392505050565b7f4c61206775c3ad61206e6f206578697374650000000000000000000000000000600082015250565b6000613de360128361309e565b9150613dee82613dad565b602082019050919050565b60006020820190508181036000830152613e1281613dd6565b9050919050565b60008190508160005260206000209050919050565b60006020601f8301049050919050565b600082821b905092915050565b600060088302613e7b7fffffffffffffffffffffffffffffffffffffffffffffffffffffffffffffffff82613e3e565b613e858683613e3e565b95508019841693508086168417925050509392505050565b6000819050919050565b6000613ec2613ebd613eb884612f0b565b613e9d565b612f0b565b9050919050565b6000819050919050565b613edc83613ea7565b613ef0613ee882613ec9565b848454613e4b565b825550505050565b600090565b613f05613ef8565b613f10818484613ed3565b505050565b5b81811015613f3457613f29600082613efd565b600181019050613f16565b5050565b601f821115613f7957613f4a81613e19565b613f5384613e2e565b81016020851015613f62578190505b613f76613f6e85613e2e565b830182613f15565b50505b505050565b600082821c905092915050565b6000613f9c60001984600802613f7e565b1980831691505092915050565b6000613fb58383613f8b565b9150826002028217905092915050565b613fce82613093565b67ffffffffffffffff811115613fe757613fe661334a565b5b613ff18254613d53565b613ffc828285613f38565b600060209050601f83116001811461402f576000841561401d578287015190505b6140278582613fa9565b86555061408f565b601f19841661403d86613e19565b60005b8281101561406557848901518255600182019150602085019450602081019050614040565b86831015614082578489015161407e601f891682613f8b565b8355505b6001600288020188555050505b505050505050565b7f4775c3ad61206e6f20646973706f6e69626c6500000000000000000000000000600082015250565b60006140cd60138361309e565b91506140d882614097565b602082019050919050565b600060208201905081810360008301526140fc816140c0565b9050919050565b7f5061676f20696e737566696369656e7465000000000000000000000000000000600082015250565b600061413960118361309e565b915061414482614103565b602082019050919050565b600060208201905081810360008301526141688161412c565b9050919050565b7f546f646173206c617320636f70696173206d696e746561646173000000000000600082015250565b60006141a5601a8361309e565b91506141b08261416f565b602082019050919050565b600060208201905081810360008301526141d481614198565b9050919050565b7f4e487b7100000000000000000000000000000000000000000000000000000000600052601160045260246000fd5b600061421582612f0b565b915061422083612f0b565b925082820261422e81612f0b565b91508282048414831517614245576142446141db565b5b5092915050565b7f4e487b7100000000000000000000000000000000000000000000000000000000600052601260045260246000fd5b600061428682612f0b565b915061429183612f0b565b9250826142a1576142a061424c565b5b828204905092915050565b60006142b782612f0b565b91506142c283612f0b565b92508282039050818111156142da576142d96141db565b5b92915050565b60006142eb82612f0b565b91507fffffffffffffffffffffffffffffffffffffffffffffffffffffffffffffffff820361431d5761431c6141db565b5b600182019050919050565b6000819050919050565b600061434d61434861434384614328565b613e9d565b612f0b565b9050919050565b61435d81614332565b82525050565b60006040820190506143786000830185614354565b6143856020830184612f81565b9392505050565b60006040820190506143a16000830185612f81565b6143ae602083018461303c565b9392505050565b7f4e6f2068617920666f6e646f7320706172612072657469726172000000000000600082015250565b60006143eb601a8361309e565b91506143f6826143b5565b602082019050919050565b6000602082019050818103600083015261441a816143de565b9050919050565b60006040820190506144366000830185612f81565b6144436020830184612f81565b9392505050565b7f4e487b7100000000000000000000000000000000000000000000000000000000600052603260045260246000fd5b7f456c2070726563696f206465626520736572206d61796f722071756520300000600082015250565b60006144af601e8361309e565b91506144ba82614479565b602082019050919050565b600060208201905081810360008301526144de816144a2565b9050919050565b7f456c2073756d696e697374726f20746f74616c206465626520736572206d617960008201527f6f72207175652030000000000000000000000000000000000000000000000000602082015250565b600061454160288361309e565b915061454c826144e5565b604082019050919050565b6000602082019050818103600083015261457081614534565b9050919050565b7f456c20706f7263656e74616a6520646520726567616cc3ad617320657320646560008201527f6d61736961646f20616c746f0000000000000000000000000000000000000000602082015250565b60006145d3602c8361309e565b91506145de82614577565b604082019050919050565b60006020820190508181036000830152614602816145c6565b9050919050565b6000606082019050818103600083015261462381866130ea565b90506146326020830185612f81565b61463f6040830184612f81565b949350505050565b7f53616c646f20696e737566696369656e74650000000000000000000000000000600082015250565b600061467d60128361309e565b915061468882614647565b602082019050919050565b600060208201905081810360008301526146ac81614670565b9050919050565b60006080820190506146c86000830187613145565b6146d56020830186612f81565b6146e26040830185612f81565b6146ef6060830184612f81565b95945050505050565b600061470382612f0b565b915061470e83612f0b565b9250828201905080821115614726576147256141db565b5b92915050565b6000604082019050818103600083015261474681856137ee565b9050818103602083015261475a81846137ee565b90509392505050565b600081519050919050565b600082825260208201905092915050565b600061478a82614763565b614794818561476e565b93506147a48185602086016130af565b6147ad816130d9565b840191505092915050565b600060a0820190506147cd6000830188613145565b6147da6020830187613145565b6147e76040830186612f81565b6147f46060830185612f81565b8181036080830152614806818461477f565b90509695505050505050565b60008151905061482181612fd7565b92915050565b60006020828403121561483d5761483c612ea3565b5b600061484b84828501614812565b91505092915050565b600060a0820190506148696000830188613145565b6148766020830187613145565b818103604083015261488881866137ee565b9050818103606083015261489c81856137ee565b905081810360808301526148b0818461477f565b9050969550505050505056fea2646970667358221220bfd6b9ef27076b58bd59707ef655ad0fb821dabc125b3aedf22c4b5ba44ed38e64736f6c63430008140033",
  "linkReferences": {},
  "deployedLinkReferences": {}
}